{
  "_format": "hh-sol-artifact-1",
  "contractName": "SoulboundProvenance",
  "sourceName": "contracts/SoulboundProvenance.sol",
  "abi": [
    {
      "inputs": [
        {
          "internalType": "address",
          "name": "_relayer",
          "type": "address"
        }
      ],
      "stateMutability": "nonpayable",
      "type": "constructor"
    },
    {
      "anonymous": false,
      "inputs": [
        {
          "indexed": true,
          "internalType": "address",
          "name": "owner",
          "type": "address"
        },
        {
          "indexed": true,
          "internalType": "address",
          "name": "approved",
          "type": "address"
        },
        {
          "indexed": true,
          "internalType": "uint256",
          "name": "tokenId",
          "type": "uint256"
        }
      ],
      "name": "Approval",
      "type": "event"
    },
    {
      "anonymous": false,
      "inputs": [
        {
          "indexed": true,
          "internalType": "address",
          "name": "owner",
          "type": "address"
        },
        {
          "indexed": true,
          "internalType": "address",
          "name": "operator",
          "type": "address"
        },
        {
          "indexed": false,
          "internalType": "bool",
          "name": "approved",
          "type": "bool"
        }
      ],
      "name": "ApprovalForAll",
      "type": "event"
    },
    {
      "anonymous": false,
      "inputs": [
        {
          "indexed": true,
          "internalType": "uint256",
          "name": "tokenId",
          "type": "uint256"
        },
        {
          "indexed": false,
          "internalType": "bytes32",
          "name": "contentHash",
          "type": "bytes32"
        },
        {
          "indexed": false,
          "internalType": "string",
          "name": "community",
          "type": "string"
        },
        {
          "indexed": false,
          "internalType": "string",
          "name": "language",
          "type": "string"
        },
        {
          "indexed": false,
          "internalType": "uint256",
          "name": "recordedAt",
          "type": "uint256"
        },
        {
          "indexed": false,
          "internalType": "bool",
          "name": "aiTrainingAllowed",
          "type": "bool"
        }
      ],
      "name": "ProvenanceMinted",
      "type": "event"
    },
    {
      "anonymous": false,
      "inputs": [
        {
          "indexed": true,
          "internalType": "address",
          "name": "from",
          "type": "address"
        },
        {
          "indexed": true,
          "internalType": "address",
          "name": "to",
          "type": "address"
        },
        {
          "indexed": true,
          "internalType": "uint256",
          "name": "tokenId",
          "type": "uint256"
        }
      ],
      "name": "Transfer",
      "type": "event"
    },
    {
      "inputs": [
        {
          "internalType": "address",
          "name": "to",
          "type": "address"
        },
        {
          "internalType": "uint256",
          "name": "tokenId",
          "type": "uint256"
        }
      ],
      "name": "approve",
      "outputs": [],
      "stateMutability": "nonpayable",
      "type": "function"
    },
    {
      "inputs": [
        {
          "internalType": "address",
          "name": "owner",
          "type": "address"
        }
      ],
      "name": "balanceOf",
      "outputs": [
        {
          "internalType": "uint256",
          "name": "",
          "type": "uint256"
        }
      ],
      "stateMutability": "view",
      "type": "function"
    },
    {
      "inputs": [
        {
          "internalType": "uint256",
          "name": "tokenId",
          "type": "uint256"
        }
      ],
      "name": "getApproved",
      "outputs": [
        {
          "internalType": "address",
          "name": "",
          "type": "address"
        }
      ],
      "stateMutability": "view",
      "type": "function"
    },
    {
      "inputs": [
        {
          "internalType": "address",
          "name": "owner",
          "type": "address"
        },
        {
          "internalType": "address",
          "name": "operator",
          "type": "address"
        }
      ],
      "name": "isApprovedForAll",
      "outputs": [
        {
          "internalType": "bool",
          "name": "",
          "type": "bool"
        }
      ],
      "stateMutability": "view",
      "type": "function"
    },
    {
      "inputs": [
        {
          "internalType": "address",
          "name": "to",
          "type": "address"
        },
        {
          "internalType": "bytes32",
          "name": "contentHash",
          "type": "bytes32"
        },
        {
          "internalType": "string",
          "name": "community",
          "type": "string"
        },
        {
          "internalType": "string",
          "name": "language",
          "type": "string"
        },
        {
          "internalType": "uint256",
          "name": "recordedAt",
          "type": "uint256"
        },
        {
          "internalType": "bool",
          "name": "aiTrainingAllowed",
          "type": "bool"
        }
      ],
      "name": "mint",
      "outputs": [
        {
          "internalType": "uint256",
          "name": "tokenId",
          "type": "uint256"
        }
      ],
      "stateMutability": "nonpayable",
      "type": "function"
    },
    {
      "inputs": [],
      "name": "name",
      "outputs": [
        {
          "internalType": "string",
          "name": "",
          "type": "string"
        }
      ],
      "stateMutability": "view",
      "type": "function"
    },
    {
      "inputs": [
        {
          "internalType": "uint256",
          "name": "tokenId",
          "type": "uint256"
        }
      ],
      "name": "ownerOf",
      "outputs": [
        {
          "internalType": "address",
          "name": "",
          "type": "address"
        }
      ],
      "stateMutability": "view",
      "type": "function"
    },
    {
      "inputs": [
        {
          "internalType": "uint256",
          "name": "",
          "type": "uint256"
        }
      ],
      "name": "provenance",
      "outputs": [
        {
          "internalType": "bytes32",
          "name": "contentHash",
          "type": "bytes32"
        },
        {
          "internalType": "string",
          "name": "community",
          "type": "string"
        },
        {
          "internalType": "string",
          "name": "language",
          "type": "string"
        },
        {
          "internalType": "uint256",
          "name": "recordedAt",
          "type": "uint256"
        },
        {
          "internalType": "bool",
          "name": "aiTrainingAllowed",
          "type": "bool"
        }
      ],
      "stateMutability": "view",
      "type": "function"
    },
    {
      "inputs": [],
      "name": "relayer",
      "outputs": [
        {
          "internalType": "address",
          "name": "",
          "type": "address"
        }
      ],
      "stateMutability": "view",
      "type": "function"
    },
    {
      "inputs": [
        {
          "internalType": "address",
          "name": "from",
          "type": "address"
        },
        {
          "internalType": "address",
          "name": "to",
          "type": "address"
        },
        {
          "internalType": "uint256",
          "name": "tokenId",
          "type": "uint256"
        }
      ],
      "name": "safeTransferFrom",
      "outputs": [],
      "stateMutability": "nonpayable",
      "type": "function"
    },
    {
      "inputs": [
        {
          "internalType": "address",
          "name": "from",
          "type": "address"
        },
        {
          "internalType": "address",
          "name": "to",
          "type": "address"
        },
        {
          "internalType": "uint256",
          "name": "tokenId",
          "type": "uint256"
        },
        {
          "internalType": "bytes",
          "name": "data",
          "type": "bytes"
        }
      ],
      "name": "safeTransferFrom",
      "outputs": [],
      "stateMutability": "nonpayable",
      "type": "function"
    },
    {
      "inputs": [
        {
          "internalType": "address",
          "name": "operator",
          "type": "address"
        },
        {
          "internalType": "bool",
          "name": "approved",
          "type": "bool"
        }
      ],
      "name": "setApprovalForAll",
      "outputs": [],
      "stateMutability": "nonpayable",
      "type": "function"
    },
    {
      "inputs": [
        {
          "internalType": "bytes4",
          "name": "interfaceId",
          "type": "bytes4"
        }
      ],
      "name": "supportsInterface",
      "outputs": [
        {
          "internalType": "bool",
          "name": "",
          "type": "bool"
        }
      ],
      "stateMutability": "view",
      "type": "function"
    },
    {
      "inputs": [],
      "name": "symbol",
      "outputs": [
        {
          "internalType": "string",
          "name": "",
          "type": "string"
        }
      ],
      "stateMutability": "view",
      "type": "function"
    },
    {
      "inputs": [
        {
          "internalType": "uint256",
          "name": "tokenId",
          "type": "uint256"
        }
      ],
      "name": "tokenURI",
      "outputs": [
        {
          "internalType": "string",
          "name": "",
          "type": "string"
        }
      ],
      "stateMutability": "view",
      "type": "function"
    },
    {
      "inputs": [
        {
          "internalType": "address",
          "name": "from",
          "type": "address"
        },
        {
          "internalType": "address",
          "name": "to",
          "type": "address"
        },
        {
          "internalType": "uint256",
          "name": "tokenId",
          "type": "uint256"
        }
      ],
      "name": "transferFrom",
      "outputs": [],
      "stateMutability": "nonpayable",
      "type": "function"
    }
  ],
  "bytecode": "0x60806040523480156200001157600080fd5b5060405162001ae138038062001ae18339810160408190526200003491620000d0565b6040518060400160405280601581526020017f4669727374566f6963652050726f76656e616e636500000000000000000000008152506040518060400160405280600381526020016204656560ec1b8152508160009081620000979190620001a7565b506001620000a68282620001a7565b5050600880546001600160a01b0319166001600160a01b0393909316929092179091555062000273565b600060208284031215620000e357600080fd5b81516001600160a01b0381168114620000fb57600080fd5b9392505050565b634e487b7160e01b600052604160045260246000fd5b600181811c908216806200012d57607f821691505b6020821081036200014e57634e487b7160e01b600052602260045260246000fd5b50919050565b601f821115620001a257600081815260208120601f850160051c810160208610156200017d5750805b601f850160051c820191505b818110156200019e5782815560010162000189565b5050505b505050565b81516001600160401b03811115620001c357620001c362000102565b620001db81620001d4845462000118565b8462000154565b602080601f831160018114620002135760008415620001fa5750858301515b600019600386901b1c1916600185901b1785556200019e565b600085815260208120601f198616915b82811015620002445788860151825594840194600190910190840162000223565b5085821015620002635787850151600019600388901b60f8161c191681555b5050505050600190811b01905550565b61185e80620002836000396000f3fe608060405234801561001057600080fd5b50600436106101005760003560e01c806370a0823111610097578063a22cb46511610066578063a22cb4651461022e578063b88d4fde14610241578063c87b56dd14610254578063e985e9c51461026757600080fd5b806370a08231146101df5780638406c0791461020057806386d18e861461021357806395d89b411461022657600080fd5b806323b872dd116100d357806323b872dd146101825780633840b44f1461019557806342842e0e146101b95780636352211e146101cc57600080fd5b806301ffc9a71461010557806306fdde031461012d578063081812fc14610142578063095ea7b31461016d575b600080fd5b6101186101133660046111cc565b6102a3565b60405190151581526020015b60405180910390f35b6101356102f5565b6040516101249190611239565b61015561015036600461124c565b610387565b6040516001600160a01b039091168152602001610124565b61018061017b366004611281565b6103ae565b005b6101806101903660046112ab565b6104c8565b6101a86101a336600461124c565b6104f9565b6040516101249594939291906112e7565b6101806101c73660046112ab565b61063c565b6101556101da36600461124c565b610657565b6101f26101ed36600461132c565b6106b7565b604051908152602001610124565b600854610155906001600160a01b031681565b6101f2610221366004611403565b61073d565b61013561087d565b61018061023c36600461149a565b61088c565b61018061024f3660046114cd565b61089b565b61013561026236600461124c565b6108d3565b610118610275366004611549565b6001600160a01b03918216600090815260056020908152604080832093909416825291909152205460ff1690565b60006001600160e01b031982166380ac58cd60e01b14806102d457506001600160e01b03198216635b5e139f60e01b145b806102ef57506301ffc9a760e01b6001600160e01b03198316145b92915050565b60606000805461030490611573565b80601f016020809104026020016040519081016040528092919081815260200182805461033090611573565b801561037d5780601f106103525761010080835404028352916020019161037d565b820191906000526020600020905b81548152906001019060200180831161036057829003601f168201915b5050505050905090565b600061039282610947565b506000908152600460205260409020546001600160a01b031690565b60006103b982610657565b9050806001600160a01b0316836001600160a01b03160361042b5760405162461bcd60e51b815260206004820152602160248201527f4552433732313a20617070726f76616c20746f2063757272656e74206f776e656044820152603960f91b60648201526084015b60405180910390fd5b336001600160a01b038216148061044757506104478133610275565b6104b95760405162461bcd60e51b815260206004820152603d60248201527f4552433732313a20617070726f76652063616c6c6572206973206e6f7420746f60448201527f6b656e206f776e6572206f7220617070726f76656420666f7220616c6c0000006064820152608401610422565b6104c383836109a9565b505050565b6104d23382610a17565b6104ee5760405162461bcd60e51b8152600401610422906115ad565b6104c3838383610a96565b6007602052600090815260409020805460018201805491929161051b90611573565b80601f016020809104026020016040519081016040528092919081815260200182805461054790611573565b80156105945780601f1061056957610100808354040283529160200191610594565b820191906000526020600020905b81548152906001019060200180831161057757829003601f168201915b5050505050908060020180546105a990611573565b80601f01602080910402602001604051908101604052809291908181526020018280546105d590611573565b80156106225780601f106105f757610100808354040283529160200191610622565b820191906000526020600020905b81548152906001019060200180831161060557829003601f168201915b50505050600383015460049093015491929160ff16905085565b6104c38383836040518060200160405280600081525061089b565b6000818152600260205260408120546001600160a01b0316806102ef5760405162461bcd60e51b8152602060048201526018602482015277115490cdcc8c4e881a5b9d985b1a59081d1bdad95b88125160421b6044820152606401610422565b60006001600160a01b0382166107215760405162461bcd60e51b815260206004820152602960248201527f4552433732313a2061646472657373207a65726f206973206e6f7420612076616044820152683634b21037bbb732b960b91b6064820152608401610422565b506001600160a01b031660009081526003602052604090205490565b6008546000906001600160a01b031633146107925760405162461bcd60e51b815260206004820152601560248201527413db9b1e481c995b185e595c8818d85b881b5a5b9d605a1b6044820152606401610422565b5060068054600181019091556107a88782610c07565b6040805160a08101825287815260208082018881528284018890526060830187905285151560808401526000858152600790925292902081518155915190919060018201906107f79082611648565b506040820151600282019061080c9082611648565b50606082015160038201556080909101516004909101805460ff191691151591909117905560405181907fffb97c3b9576aa514ba7e3bbf7a1658f0d6d3536ec1f8aafef2f7289b85f0d9a9061086b90899089908990899089906112e7565b60405180910390a29695505050505050565b60606001805461030490611573565b610897338383610c21565b5050565b6108a53383610a17565b6108c15760405162461bcd60e51b8152600401610422906115ad565b6108cd84848484610cef565b50505050565b60606108de82610947565b60006108f560408051602081019091526000815290565b905060008151116109155760405180602001604052806000815250610940565b8061091f84610d22565b604051602001610930929190611708565b6040516020818303038152906040525b9392505050565b6000818152600260205260409020546001600160a01b03166109a65760405162461bcd60e51b8152602060048201526018602482015277115490cdcc8c4e881a5b9d985b1a59081d1bdad95b88125160421b6044820152606401610422565b50565b600081815260046020526040902080546001600160a01b0319166001600160a01b03841690811790915581906109de82610657565b6001600160a01b03167f8c5be1e5ebec7d5bd14f71427d1e84f3dd0314c0f7b2291e5b200ac8c7c3b92560405160405180910390a45050565b600080610a2383610657565b9050806001600160a01b0316846001600160a01b03161480610a6a57506001600160a01b0380821660009081526005602090815260408083209388168352929052205460ff165b80610a8e5750836001600160a01b0316610a8384610387565b6001600160a01b0316145b949350505050565b826001600160a01b0316610aa982610657565b6001600160a01b031614610acf5760405162461bcd60e51b815260040161042290611737565b6001600160a01b038216610b315760405162461bcd60e51b8152602060048201526024808201527f4552433732313a207472616e7366657220746f20746865207a65726f206164646044820152637265737360e01b6064820152608401610422565b610b3e8383836001610db5565b826001600160a01b0316610b5182610657565b6001600160a01b031614610b775760405162461bcd60e51b815260040161042290611737565b600081815260046020908152604080832080546001600160a01b03199081169091556001600160a01b0387811680865260038552838620805460001901905590871680865283862080546001019055868652600290945282852080549092168417909155905184937fddf252ad1be2c89b69c2b068fc378daa952ba7f163c4a11628f55a4df523b3ef91a4505050565b610897828260405180602001604052806000815250610e11565b816001600160a01b0316836001600160a01b031603610c825760405162461bcd60e51b815260206004820152601960248201527f4552433732313a20617070726f766520746f2063616c6c6572000000000000006044820152606401610422565b6001600160a01b03838116600081815260056020908152604080832094871680845294825291829020805460ff191686151590811790915591519182527f17307eab39ab6107e8899845ad3d59bd9653f200f220920489ca2b5937696c31910160405180910390a3505050565b610cfa848484610a96565b610d0684848484610e44565b6108cd5760405162461bcd60e51b81526004016104229061177c565b60606000610d2f83610f45565b600101905060008167ffffffffffffffff811115610d4f57610d4f611347565b6040519080825280601f01601f191660200182016040528015610d79576020820181803683370190505b5090508181016020015b600019016f181899199a1a9b1b9c1cb0b131b232b360811b600a86061a8153600a8504945084610d8357509392505050565b6001600160a01b03841615610e0c5760405162461bcd60e51b815260206004820152601b60248201527f536f756c626f756e643a206e6f6e2d7472616e7366657261626c6500000000006044820152606401610422565b6108cd565b610e1b838361101d565b610e286000848484610e44565b6104c35760405162461bcd60e51b81526004016104229061177c565b60006001600160a01b0384163b15610f3a57604051630a85bd0160e11b81526001600160a01b0385169063150b7a0290610e889033908990889088906004016117ce565b6020604051808303816000875af1925050508015610ec3575060408051601f3d908101601f19168201909252610ec09181019061180b565b60015b610f20573d808015610ef1576040519150601f19603f3d011682016040523d82523d6000602084013e610ef6565b606091505b508051600003610f185760405162461bcd60e51b81526004016104229061177c565b805181602001fd5b6001600160e01b031916630a85bd0160e11b149050610a8e565b506001949350505050565b60008072184f03e93ff9f4daa797ed6e38ed64bf6a1f0160401b8310610f845772184f03e93ff9f4daa797ed6e38ed64bf6a1f0160401b830492506040015b6d04ee2d6d415b85acef81000000008310610fb0576d04ee2d6d415b85acef8100000000830492506020015b662386f26fc100008310610fce57662386f26fc10000830492506010015b6305f5e1008310610fe6576305f5e100830492506008015b6127108310610ffa57612710830492506004015b6064831061100c576064830492506002015b600a83106102ef5760010192915050565b6001600160a01b0382166110735760405162461bcd60e51b815260206004820181905260248201527f4552433732313a206d696e7420746f20746865207a65726f20616464726573736044820152606401610422565b6000818152600260205260409020546001600160a01b0316156110d85760405162461bcd60e51b815260206004820152601c60248201527f4552433732313a20746f6b656e20616c7265616479206d696e746564000000006044820152606401610422565b6110e6600083836001610db5565b6000818152600260205260409020546001600160a01b03161561114b5760405162461bcd60e51b815260206004820152601c60248201527f4552433732313a20746f6b656e20616c7265616479206d696e746564000000006044820152606401610422565b6001600160a01b038216600081815260036020908152604080832080546001019055848352600290915280822080546001600160a01b0319168417905551839291907fddf252ad1be2c89b69c2b068fc378daa952ba7f163c4a11628f55a4df523b3ef908290a45050565b6001600160e01b0319811681146109a657600080fd5b6000602082840312156111de57600080fd5b8135610940816111b6565b60005b838110156112045781810151838201526020016111ec565b50506000910152565b600081518084526112258160208601602086016111e9565b601f01601f19169290920160200192915050565b602081526000610940602083018461120d565b60006020828403121561125e57600080fd5b5035919050565b80356001600160a01b038116811461127c57600080fd5b919050565b6000806040838503121561129457600080fd5b61129d83611265565b946020939093013593505050565b6000806000606084860312156112c057600080fd5b6112c984611265565b92506112d760208501611265565b9150604084013590509250925092565b85815260a06020820152600061130060a083018761120d565b8281036040840152611312818761120d565b606084019590955250509015156080909101529392505050565b60006020828403121561133e57600080fd5b61094082611265565b634e487b7160e01b600052604160045260246000fd5b600067ffffffffffffffff8084111561137857611378611347565b604051601f8501601f19908116603f011681019082821181831017156113a0576113a0611347565b816040528093508581528686860111156113b957600080fd5b858560208301376000602087830101525050509392505050565b600082601f8301126113e457600080fd5b6109408383356020850161135d565b8035801515811461127c57600080fd5b60008060008060008060c0878903121561141c57600080fd5b61142587611265565b955060208701359450604087013567ffffffffffffffff8082111561144957600080fd5b6114558a838b016113d3565b9550606089013591508082111561146b57600080fd5b5061147889828a016113d3565b9350506080870135915061148e60a088016113f3565b90509295509295509295565b600080604083850312156114ad57600080fd5b6114b683611265565b91506114c4602084016113f3565b90509250929050565b600080600080608085870312156114e357600080fd5b6114ec85611265565b93506114fa60208601611265565b925060408501359150606085013567ffffffffffffffff81111561151d57600080fd5b8501601f8101871361152e57600080fd5b61153d8782356020840161135d565b91505092959194509250565b6000806040838503121561155c57600080fd5b61156583611265565b91506114c460208401611265565b600181811c9082168061158757607f821691505b6020821081036115a757634e487b7160e01b600052602260045260246000fd5b50919050565b6020808252602d908201527f4552433732313a2063616c6c6572206973206e6f7420746f6b656e206f776e6560408201526c1c881bdc88185c1c1c9bdd9959609a1b606082015260800190565b601f8211156104c357600081815260208120601f850160051c810160208610156116215750805b601f850160051c820191505b818110156116405782815560010161162d565b505050505050565b815167ffffffffffffffff81111561166257611662611347565b611676816116708454611573565b846115fa565b602080601f8311600181146116ab57600084156116935750858301515b600019600386901b1c1916600185901b178555611640565b600085815260208120601f198616915b828110156116da578886015182559484019460019091019084016116bb565b50858210156116f85787850151600019600388901b60f8161c191681555b5050505050600190811b01905550565b6000835161171a8184602088016111e9565b83519083019061172e8183602088016111e9565b01949350505050565b60208082526025908201527f4552433732313a207472616e736665722066726f6d20696e636f72726563742060408201526437bbb732b960d91b606082015260800190565b60208082526032908201527f4552433732313a207472616e7366657220746f206e6f6e20455243373231526560408201527131b2b4bb32b91034b6b83632b6b2b73a32b960711b606082015260800190565b6001600160a01b03858116825284166020820152604081018390526080606082018190526000906118019083018461120d565b9695505050505050565b60006020828403121561181d57600080fd5b8151610940816111b656fea2646970667358221220f5e5ad330b946c6f63247b281ee224240c175c35611fe26a63f002944828c65564736f6c63430008140033",
  "linkReferences": {},
  "deployedLinkReferences": {}
}